:10000000187F0020D1200000C96F0000A52000004B
:10001000A5200000A5200000A52000000000000091
:10002000000000000000000000000000491C00006B
:10003000A520000000000000011C0000A520000019
:10004000C51C0000C51C0000C51C0000C51C00002C
:10005000C51C0000C51C0000C51C0000C51C00001C
:10006000C51C0000C51C0000C51C0000C51C00000C
:10007000C51C0000C51C0000C51C0000C51C0000FC
:10008000C51C0000C51C0000C51C0000C51C0000EC
:10009000C51C0000C51C0000C51C0000C51C0000DC
:1000A000C51C0000C51C0000C51C0000C51C0000CC
:1000B000C51C0000C51C0000C51C0000C51C0000BC
:1000C000C51C0000C51C0000C51C0000C51C0000AC
:1000D000C51C0000C51C0000C51C0000C51C00009C
:1000E000C51C0000C51C0000C51C0000C51C00008C
:1000F000C51C0000C51C0000C51C0000C51C00007C
:1001000053B94AB9002908BF00281CBF4FF0FF317E
:100110004FF0FF3000F00CB8ADF1080C6DE904CEE3
:1001200000F008F8DDF804E0DDE9022304B07047D0
:10013000704700BF2DE9F04F07468C460846099EE0
:1001400015463C461946002B40F0C6808242B2FA62
:1001500082F746D94FB1C7F1200E24FA0EFE00FAFD
:1001600007F3BD404EEA030CBC404FEA15481FFAA6
:1001700085FEBCFBF8F9220C08FB19C309FB0EFA3B
:1001800042EA03439A4528D9EB1809F1FF3004D21B
:100190009A4502D9A9F102002B44A3EB0A03A4B2A9
:1001A000B3FBF8F208FB123302FB0EFE44EA0344F1
:1001B000A64514D92C1902F1FF3303D2A64501D963
:1001C000931E2C44A4EB0E0443EA00401EB1FC40F5
:1001D000002334607360BDE8F08F4846DDE71346C6
:1001E000F0E702B9FFDE87BB831A01214FEA154E03
:1001F000AAB2B3FBFEFC200C0EFB1C330CFB02F876
:1002000040EA0343984563D9EB180CF1FF3004D260
:10021000984502D9ACF102002B44A3EB0803A4B229
:10022000B3FBFEFC0EFB1C330CFB02F244EA03445E
:10023000A2424FD92C190CF1FF3304D2A24202D9A9
:10024000ACF102032C44A41ABEE7C7F1200C20FA3B
:100250000CF800FA07F324FA0CFCBD404CEA030248
:100260004FEA154EABB2B8FBFEFC110C0EFB1C8026
:100270000CFB03F941EA0040814504FA07F423D955
:1002800028180CF1FF3104D2814502D9ACF10201EA
:100290002844A0EB090092B2B0FBFEFC0EFB1C0050
:1002A0000CFB03F842EA004398450FD9EB180CF118
:1002B000FF3204D2984502D9ACF102022B44A3EBE1
:1002C000080342EA014191E76146E2E76246F6E748
:1002D0006046A2E76346B6E7834205D90EB1C6E998
:1002E00000700021084676E7B3FA83F181B98342B2
:1002F00001D3BA420AD8BC1A60EB030301209C4622
:10030000002E68D0C6E9004C002164E70846F7E7F4
:10031000C1F1200C8B4022FA0CF41C4302FA01F5C7
:1003200000FA01F327FA0CF220FA0CFB4FEA144909
:100330001343BBFBF9F81FFA84FE09FB18BB1A0C28
:1003400008FB0EFA42EA0B42924507FA01F73ED942
:10035000A21808F1FF3004D2924502D9A8F1020098
:100360002244A2EB0A029BB2B2FBF9F809FB182265
:1003700008FB0EFE43EA024296452AD9A21808F16C
:10038000FF3304D2964502D9A8F10203224443EA7E
:100390000040A0FB0593A2EB0E029A42CE4698467F
:1003A00002D306D14F4504D2B9EB050E63EB040826
:1003B000013886B1B7EB0E0362EB080707FA0CFCB5
:1003C000CB404CEA0303CF40C6E900379CE74046E8
:1003D000C7E74346DBE73146FDE600007FB5304B1B
:1003E000304AC3F800263048C3F804264921C3F830
:1003F0000826C3F80C26C3F81026C3F81426C3F841
:100400001826C3F81C2606F04AFD00F085F8274898
:1004100000F05CF828B9254A2548452106F03FFD43
:10042000FEE701A800F0D4FC224B1B68834204D0F5
:100430002148452106F033FDFEE7039A1F48492174
:1004400006F02DFD1E48492106F029FD4FF48031AC
:10045000002007F0F2F920B11A48452106F01FFDEF
:10046000FEE769469DF8080000F03CF8009B039CFD
:100470001C44019B1D8900F047FF66194FF02002C4
:10048000EFF3118382F31288BFF36F8F635983F305
:100490000888736898470C48452106F000FDFEE780
:1004A000000001403546526E0C9E0000259E000063
:1004B000389E00004C030020579E00007A9E0000EA
:1004C000A99E0000CE9E0000019F000010B5044CC4
:1004D000236813B904F0BAFF2060206810BD00BF84
:1004E0004803002008B5024638B1054800234521DD
:1004F00006F0D5FC6FF0150008BD0860FCE700BFF2
:10050000249F000002299ABF024B58566FF0150035
:10051000704700BF4A9F000002484FF4C05103F0EB
:1005200073BE00BF023A00202DE9F04FF9B0DDE9BB
:100530008448DFF8E8A138A8DAF8006017461D46BD
:1005400008F025FD002138A803F06EFF3CB1B8F19A
:10055000000F04DD4246214638A808F01CFD7B89C7
:10056000B7F808809844FB684FF000099844C845E4
:100570004BD80DA938A808F04BFD869B23B120224B
:100580000DA9184606F055FD002300932A464FF6A4
:10059000FF73394607A806F0DFF80446002840F04C
:1005A000B680DFF87C9180464FF0FF370DF11603DF
:1005B00005AA06A907A806F01BF9041EC0F2A78029
:1005C00040F09880BDF816B0BBF1100F34D1BDF8E3
:1005D0001480B8F1200F40F098800699434638AA5D
:1005E000284606F06AFC0446002840F09080424607
:1005F00038A90DA806F047F904464A4B1B68834208
:1006000040F085804FF00108D0E7DDF80CB2829A07
:10061000A8EB09039B4528BF9B465B4649462846F5
:1006200006F04BFC0446002871D182995A4638A83E
:1006300008F0B1FCD9449AE7BBF1010F36D1BDF8FF
:100640001430202B61D8069938AA284606F035FCCC
:10065000044600285BD19DF814B0BBF1200F03D9EC
:100660004FF0FF342746A1E7D9F800302E4F03930F
:10067000039B9C42F4DA1DA808F089FC00211DA808
:1006800003F0D2FE7A6857F8081B12681DA808F01C
:1006900082FC15A91DA808F0BBFC5A4638A915A86C
:1006A00006F0B6FC0028DDD00134E1E7BBF1200FF5
:1006B0007FF47CAF7B1C3FF479AFD9F80030BB42AC
:1006C00015DDBDF81430B3F5807F1ED1069938AA28
:1006D000284606F0F2FB0446C8B9FFB2BDF8143054
:1006E000009738AA59460DA800F020F806464FF0AA
:1006F000FF375BE7B8F1000F0DD00A4B1B68B34220
:1007000001D0DAF80060344601E04FF0FF342046B3
:1007100079B0BDE8F08F0124F9E700BF00000020A8
:10072000389A00004C0300203C9A00002DE9F04F5D
:100730009846ADF54B7D6B4B9DF850631D680746A1
:1007400027A88A46914608F0DFFB674B53F83640EE
:10075000029403EBC6038AAA5B6819680C44302331
:10076000214602A807F066F968BB029B8A9A1344E7
:100770009C4228D129AA214602A807F06FF910BB94
:100780000DF1B00B5A46214602A807F067F906465C
:10079000C8B929A807F0C2FC029B28909C4212D13C
:1007A000CDE9006B3346324629A927A808F068FB3B
:1007B00048B927A803F0D6FD28B929A807F0AEFC50
:1007C000804528900AD027A808F0A8FB27A808F0A1
:1007D000A5FB28460DF54B7DBDE8F08FB8F5807F71
:1007E00002D04FF0FF35F1E7BAF1200FF9D18AAA14
:1007F000494627A803F0DAFD04460028F1D19DF808
:100800002733BC2BEDD10DF5A4780390DF264546A8
:100810000CA808F0BCFB00210CA803F005FE202268
:100820000DF207310CA808F0B6FB042203A90CA8AE
:1008300008F0B1FB04A90CA808F0EAFB1F2E9DF8F4
:100840000F30D4BFB1464FF02009013340464A462D
:1008500004A9A6EB09068DF80F3006F0EAFB002E7E
:10086000C844D5DC28468AAE2A46DF23117816F81C
:1008700001CB013B81EA0C0102F8011BF6D12B7878
:1008800003F07F032B7010F8016B002EA9D1013407
:10089000BE2CF8D195F8BE30012BA2D10CA808F0DF
:1008A00076FB31460CA803F0BFFD104908220CA8C6
:1008B00008F071FB394620220CA808F06CFB2022BE
:1008C0000DF207210CA808F066FB04A90CA808F09B
:1008D0009FFB20220DF2073104A805F0D4FF054646
:1008E00081E700BF000000203C9A00004D9F0000FF
:1008F0002DE9F04186B040F20733DFF87080ADF8A3
:1009000000300D466F46002617F8010B01A901F0D3
:1009100055F80446A0B901988168102302AA10393D
:1009200006F0CBFA0446019806F0C6FA44B9102244
:10093000414602A806F06CFB40B12EB14FF0FF34E7
:10094000204606B0BDE8F0810126DDE7019806F0FB
:1009500088FF0423A0F108012A46019806F0ADFAA9
:100960000446019806F0A8FAEAE700BFFC9D0000E3
:100970002DE9F041384B88B0064600200D461C6832
:10098000FFF7C0FD06A9C0B201F018F8002857D142
:100990002946FFF7B7FD2C2407A9C0B204FB056464
:1009A00001F00CF8002836D04FF02C0808FB05F8B1
:1009B00006EB0807396911F0100137D14FF4807345
:1009C0000193264B00932246CDE90311069B029129
:1009D0000846FFF7A9FD0446214B56F80820069863
:1009E0009A420CD13A89FB68D1438B4207D8134411
:1009F0008268934203D21B4B1B68A3421DD045B3B0
:100A00008268002106F091FA174A1848452106F03D
:100A100046FA012411E0079806F0A7FA074607985E
:100A200006F04AFA631EE21C93420DD1002DF0D06D
:100A30000699304606F03DF82C46069806F03CFA3A
:100A4000204608B0BDE8F08113F8011FB942EBD091
:100A5000AAE7074AD9E700BF0000002002520020A1
:100A60003DB8F3964C030020559F0000679F00009F
:100A70005F9F000073B50D46044600212846CDE96E
:100A8000001105F0D1FF30B3164E2368B34203D1F5
:100A900001AA204605F04CFFE36AB34204D16A463E
:100AA0000121204605F044FFDDE90032934288BF72
:100AB0000193019BAB60019A2946204600F0DCFAC5
:100AC000094B1A68002A03DD0848572106F0E7F9A8
:100AD000002002B070BD05F10801FFF709FFAB6807
:100AE0000193E8E73DB8F396BC3700208F9F0000E4
:100AF0002DE9F84FDFF870B01C4C1D4D884691462B
:100B00009A4600260B9B9E4201D300200FE00B9BD0
:100B1000154A9F1BB7F5806F28BF4FF480673B468F
:100B200006EB0A01404606F0C8F910B10120BDE805
:100B3000F88F0A993B465A467118484606F0D9F98B
:100B40000028F3D1C4F800563E44C4F80456C4F853
:100B50000856C4F80C56C4F81056C4F81456C4F815
:100B60001856C4F81C56CDE7BC0300200000014015
:100B70003546526E2DE9F0438C4B1E688C4B436218
:100B80008C4B03650F468C4BC365002185B0044632
:100B90000846FFF7B7FC04F12001C0B200F00EFFD9
:100BA00001210020FFF7AEFC04F14C01C0B200F0BF
:100BB00005FF04F15801072000F000FF054620461C
:100BC00005F0F7FE804668B900221146204605F080
:100BD00097FE8046F8B179480022572106F05FF968
:100BE000012384E076484FF40072572106F057F94C
:100BF0000123984584F86430E6D194F864308DF888
:100C00000730042B76D8012B7AD800F09280FF238E
:100C100084F864308DE0204600F03AF90028DFD0F7
:100C2000684605F0F8FE6946204605F097FF014644
:100C300018B1644842465721D0E7684605F0F4FEF3
:100C4000804660BB69462046FFF714FF9DF80730D9
:100C500084F86430033B012B06D8404605F0D3FFEF
:100C600010B1FF2384F864309DF80730023B022B5B
:100C70000BD8002005F0B5FF38B1FF2384F86430AD
:100C80005148452106F00BF9FEE794F86430FF2B3C
:100C9000F6D06A460021204605F032FEA0E79DF816
:100CA0000790B9F1010F17D1084603F0DBF8831E56
:100CB000022B80460DD849462046FFF759FE434B8C
:100CC0001B68984205D001280CBF4FF001084FF077
:100CD000050884F8648090E701212046FFF748FE6C
:100CE0003A4B1B6898420CBF9DF80730052384F8E7
:100CF000643082E7052B8AD1002005F084FF13E0E1
:100D000069462046FFF7B6FE94F86430DA1E012AE1
:100D100005460CD8002005F076FF054600287FF434
:100D200076AF002005F05DFF054610B16FE7022B9E
:100D3000F7D094F86430FF2B04D12348452106F006
:100D4000AEF8FEE7012B06D06A460021204605F0EA
:100D5000D7FD0546D0B900212046FFF709FE06461B
:100D6000DFF86880D8F8003098420FD110220021B7
:100D7000684606F069F9206A05F0ECFC3871236AD0
:100D8000D8F800605B68BB603C600025A06D06F091
:100D900093F8E06C06F090F8206A06F08DF8002DCC
:100DA00014BF2846304605B0BDE8F083000000209F
:100DB000BC070020BC270020BC17002000A00000BA
:100DC000BE9F00002CA0000056A000004C03002095
:100DD00038B5064D04466C220021284606F034F949
:100DE00021462846FFF7C6FE38BD00BF500300204D
:100DF0002DE9F74F81468B46164605F059FD4946C9
:100E00008246002005F046FDB0F100083ADB0027DD
:100E10003C463D46B84512D16DB1002C08BF444652
:100E20000323B4FBF3F35A1C03EB4303E31A01332C
:100E3000326033710025284603B0BDE8F08FDBF83F
:100E4000681001230DF1070201FB07A1484606F0D7
:100E500034F8002818DB01220DF10701484606F09E
:100E600014FD28B115B1002C08BF3C460137D1E76D
:100E700035B1002CFAD00548452106F010F8CFE72F
:100E80000125F3E70725D6E70125D4E762A0000096
:100E90002DE9F843D0F828E0BEF5007F04D8D0F85B
:100EA00054C0BCF5007F06D92848572105F0F7FF4C
:100EB0000020BDE8F883836DD3F8088000231A462C
:100EC00019461E461D461C4699468E450AD894452D
:100ED00008D88E4503D1944501D1AE4234D01C4888
:100EE0005721E3E74C4515D1476A07EBC1070131AC
:100EF0007F6804EB0709076D07EBC20701327F68C3
:100F00003C44A145E1D1C8454D444E441AD2114854
:100F10005721CBE70CD9476A07EBC107022B7F6843
:100F2000B94402D10C485721C0E701310123E8E759
:100F3000076D07EBC207012B7F683C44F2D00132FA
:100F40000223DEE70023BEE70120B2E785A0000010
:100F500023A10000EBA00000B4A0000070B588B091
:100F600006A9032006F0F7FC04A9072006F0F3FC0D
:100F70009DF81820012A51D0324B3349032A18BF5B
:100F80000B469DF81B2002929DF81A2001929DF8B5
:100F9000192000922D482E4A492105F080FF9DF826
:100FA0001020012A3CD0274B2749032A18BF0B46A3
:100FB0009DF8132002929DF8122001929DF81120B5
:100FC00000922248234A244C492105F068FF00255D
:100FD00026469DF81810207806F049FC30B39DF89D
:100FE0001010607806F043FC00B3A378042B03D004
:100FF0009DF81A209A4219D106EB8505EC788CB140
:10100000012C11D0154A164B022C18BF1A46154850
:10101000492105F044FF204608B070BD124BB0E7EF
:10102000114BC5E7114AF2E7114AF0E70135042DEB
:1010300004F10404CDD10F48492105F030FF002010
:10104000EAE700BF56A100005CA100009AA10000E1
:101050008CA10000DBA100003BA200006DA10000FC
:101060007AA10000E3A1000051A1000060A10000EE
:1010700065A10000F8A100002DE9F04F05468BB0F6
:101080009F480C464921164605F009FF00231946E2
:101090001F468E4201D88B4204D96A6A02EBC7020E
:1010A000526811449E4202D8994240F225812A6D2D
:1010B00002EBC7028E425268134403D8B34201D3F5
:1010C000994201D00137E4E7DFF838A24FF0000B76
:1010D000AB6D6A6A9968101D0023994650F8373045
:1010E0004B44994202D3013FF7D299462368013B12
:1010F0005B4500F2F9807B1CA86E52F83310136830
:10110000A1EB030805F0C1FBAB6A6A6A013B02EB85
:10111000C3014E68B04207D902F1040C013B5CF8F0
:1011200033100E44B042F9D852F83330126809EB4C
:1011300008019B1A994223688CBFA9EB00064E4612
:10114000012B40F0C280B9EB060318BF0123A37145
:1011500005A9032000F032FC06A9012000F02EFCB6
:1011600007A9072000F02AFC2379012B40F0AF806B
:1011700007980021826805F09AFC2368012B16D19C
:1011800007992246284605F0CAFCA3797BB9059940
:101190000393284605F08DFC05992246284605F064
:1011A000BEFC0798039B8268194605F080FC00236B
:1011B000DDE906120093019643462846FFF798FCA6
:1011C0002146284605F03DFC0223237120B1DAF8C0
:1011D00000300133CAF800304A464146069805F00F
:1011E00066FC4346CDE90086DDE905122846FFF797
:1011F0007FFC2368012B05D1A3791BB906992846EA
:1012000005F057FC2146284605F01BFC4FF0030370
:10121000237120B1DAF800300133CAF800304A46B1
:101220004146059805F043FC0023CDE90086059A68
:1012300007992846FFF75CFCA3796BB3079805F084
:1012400037FBAA6E07995200464403460192009666
:10125000059A2846FFF74CFC20B1DAF8003001333C
:10126000CAF80030079808A902F0A8FD9DF82330BD
:10127000012B02D1059806F061FB9DF82110012990
:1012800003D00598002206F07AFBA168059805F0C6
:1012900028FB059802F072FD0023A679A371214670
:1012A000284605F0CEFB2368013323600123237118
:1012B00020B1DAF800300133CAF800305EB1079887
:1012C0004A46002105F0F3FB05E000233FE7022B2F
:1012D00082D0032BA3D0059805F0EEFD069805F00B
:1012E000EBFD079805F0E8FD7B1C0BF1010B7FF48B
:1012F000EFAE0BB0BDE8F08F8E427FF6E1AEE1E6D7
:101300000FA20000BC370020164A4FF0FF33012126
:101310005160C2F84833C2F8083302F5C042516048
:10132000C2F84833C2F8083302F598325160C2F867
:101330004833C2F80833A2F508320021C2F800157C
:10134000C2F8083302F51832C2F80015C2F80833A3
:10135000A2F51042C2F808354FF08042C2F80833B7
:10136000704700BF00B000400B6801330B60014BB9
:101370001B68184704000020014B1860704700BF2D
:101380000400002007B50B460021024601910348E6
:1013900001A900F0E5F803B05DF804FB6913000053
:1013A0002DE9F84FB0F8189019F008080446934654
:1013B0000DD001290CBF49F0100949F02009A0F80F
:1013C00018908BF31188BFF36F8FBDE8F88F09F089
:1013D0000709022907D1204605F086FC0028F0D035
:1013E0000128238B4ED16769218B002F15DA2568E0
:1013F00021F00701C4E9008841F0010121830026A2
:10140000218B01F0070ACA4502D0A368002B5AD1EC
:101410000DB9002E71D0002356E001F007035A1FCA
:10142000012A1ED821F00701062B256889B2C4E9DC
:1014300000880AD13DB1638B2A46126801339BB202
:10144000002AFAD1638341F002012183204605F08E
:101450004BFC06460028D3D0238B43F02003238384
:10146000CDE7042B0CD121F0070189B2218320465E
:1014700005F03AFC05460028C1D041F02001218347
:101480000025BCE7032809D1226923F00703166869
:1014900043F00603238300252F46B1E7042806D135
:1014A000226923F00703566843F00403F2E7052896
:1014B00006D1226923F00703966843F00503E9E7A4
:1014C00000252E46E8E7012341F0080121838BF334
:1014D0001188BFF36F8FFBB985BB16B11F4920463A
:1014E000B0474FF02003EFF3118B83F31288BFF363
:1014F0006F8F238B23F008032383238BDA0625D5F4
:1015000023F0100323830121B4F8189009F0070990
:1015100000297FF45EAF54E7A1680029DCD0D1F840
:101520000090D1F804B03B4652462046D847B9F166
:10153000000FD1D04946D9F80090F2E729463B4642
:10154000524620462D6805F0EBFBC5E713F020015D
:101550001EBF23F0200323830221D5E74D6D000039
:101560002DE9F04F8FB01D46531E01908A4602931D
:101570004FF00009029B5878252803F1010421D17E
:101580004FF0000C18464FF0FF3702306146CDF89F
:101590000CC03C460A2602780290392A00F101006C
:1015A00058D81F2A18D8002A00F0F681019B51460E
:1015B00025209847029B51461878019B984709F1CE
:1015C0000209D7E7002800F0E781019B51469847C0
:1015D00009F101090294CDE7A2F12003192BE5D806
:1015E0000FF2040E5EF823F051160000AD15000056
:1015F000AD15000051160000AD150000D516000015
:10160000AD150000AD150000AD150000AD150000D2
:101610001717000051160000AD1500002B17000031
:10162000E3160000AD150000EF1600000B170000D8
:101630000B1700000B1700000B1700000B17000022
:101640000B1700000B1700000B1700000B17000012
:101650009446A0E7582A00F01B81A2F163035FFAC9
:1016600083FEBEF1170FA1D8172B9FD80FF2040EDF
:101670005EF823F0F318000051170000AD150000CC
:10168000AD150000AD150000311700005117000026
:10169000AD150000AD15000031170000AD150000BC
:1016A000AD150000AD1500003B180000AD150000A1
:1016B000AD150000D3180000AD1500005117000053
:1016C000AD150000AD1500003B180000AD15000081
:1016D00031170000019B51462520984709F1010967
:1016E00048E7039B03F0FE030393002753E7002C16
:1016F0000BDA002F0BDA039B002B00F0498124EA60
:10170000E47406FB0424303C45E7002FF7DB06FBBE
:101710000727303F3FE7002F55F8043B01DB1F460A
:1017200039E71C1EBFF637AF64420223039332E74A
:10173000682A03D1682906D148212CE76C2A02D1F6
:101740006C2900F0278100297FF430AF114622E791
:101750007A2907D1752A05F104062D6862D14FF068
:1017600000080DE06C29F5D04C29F3D1EB1D23F0D6
:1017700007031E46752AF6E8020107D1D3E900588F
:10178000BCF1200F51D1864B013C09E0054688464B
:10179000B8F1000FF4DA6D42824B68EB4808013C67
:1017A00000930DAB05934FF0000B284641460A22EB
:1017B0000023CDF810B0FEF7A3FC059BCDF81C80EC
:1017C000303203F801292846CDE90535414600238A
:1017D0000A22FEF795FC069B0A2B079B73F1000378
:1017E0000BF1FF3B05468846DFD2049B049AC3F108
:1017F000010B0EAB9D18002FA5F1040504DA039B25
:1018000013F0010F18BF2746039BA7EB0B08B8F195
:10181000000FD4BFA4EB0B04E41B9B0700F18180F5
:10182000274677E04FEAE578B2E7BCF12B0F0ABF15
:101830005D4B5E4B04F1FF34B2E7702A28D12E468F
:10184000002356F8041B00295CD059480090023C44
:1018500002F06002A2F139080DF1340E002501F00A
:101860000F02092A88BF424430320EF8012910299C
:101870004FEA111242EA03724FEA131073F10003A8
:1018800005F1FF3C21D20EABC5F1010B1D44B2E7BF
:101890006C2904D12E46002356F8041B08E04C297D
:1018A000F8D1073525F007052E466B6856F8081B5A
:1018B000BCF1230F06D13F4D3D4812F0200F08BF69
:1018C0002846C3E739480090C2E7654611460346FB
:1018D000C5E72E4656F8045B284605F086FB002F28
:1018E000834602DBB842A8BFBB46304B00930027BB
:1018F0008AE72E464FF0010B56F8043B8DF8203056
:1019000008ADF2E72C4D4FF0050BEEE7019B514679
:1019100020209847013FF9D524EAE473013C99441B
:10192000E41A009BA9EB030904E000935146019BD4
:101930009847009B09EB030713F8010B0028F4D12B
:10194000C146B9F1010913D528EAE878D946B9F1B9
:10195000010912D5BBF1000FA8BFD8442546013DAF
:1019600011D5002CA8BFA04408EB0709354601E6B5
:10197000019B514630209847E3E715F8010B019B86
:1019800051469847E3E7019B514620209847E6E7F8
:101990000123CBE64C21FEE548460FB0BDE8F08FB1
:1019A000DDA6000059A300005BA30000BAAA000056
:1019B00060A300005DA3000063A300000C4B1B6844
:1019C00070B573B10B4A15680022AA4202DB6FF0B2
:1019D000010070BD1C4613F8106B864204D0013222
:1019E000F3E76FF00C00F4E70C600020F1E700BFB4
:1019F00008000020D89A000070B588B005460C4653
:101A0000C0B269461646FFF7D9FF00281FDB009BCE
:101A1000EBB15A6802929A682168D8680195CDE9BD
:101A200003260022CDE90612059203F00FFD0546BC
:101A3000009805F041FA6DB12846084901AA05F061
:101A4000DFFD079808B9059B236008B070BD6FF0F3
:101A50001500FAE76FF01200F7E700BF7D6F000096
:101A6000014910220A60704710ED00E072B6404054
:101A700080F31188BFF36F8FBFF34F8F30BF62B613
:101A8000BFF36F8F704700BF72B6494081F3118872
:101A900020BF80F3118862B6704700BF37B5054696
:101AA0000C46C9B18B680093D1E900230E4845214B
:101AB00005F0F5F963690093D4E903230B48452148
:101AC00005F0EDF9E2690A48452105F0E8F9A26957
:101AD0000848452105F0E3F92146284603B0BDE852
:101AE000304003F0DDBC00BF71A30000A5A30000DF
:101AF000D9A30000EDA3000043B2002B08DB0122B4
:101B000000F01F0002FA00F05B09024A42F82300CD
:101B1000704700BF00E100E043B2002B0DDB012263
:101B20005B0900F01F0002FA00F02033034A42F87C
:101B30002300BFF34F8FBFF36F8F704700E100E0CA
:101B4000054B420900F01F0053F82220012303FA3D
:101B500000F01040704700BF00E100E043B2002BEE
:101B6000A8BF03F1604301F10101B8BF064B4FEA82
:101B70004111ACBF03F5614300F00F00C9B2B4BF1F
:101B8000195483F80013704714ED00E030BFFFF7DD
:101B9000FDBF00BF0B4A08B50B4B22F07F029A60D5
:101BA000BFF34F8FBFF36F8FD3F8882022F47002FA
:101BB000C3F8882003F0DAFC04F0BCFB00F07CFAE8
:101BC00003F014FD0000000000ED00E0094A0A499E
:101BD000936809689967094958674B6843F08053CF
:101BE0004B60002383F31188BFF36F8F9368986F66
:101BF000704700BFC4390020E49D000000ED00E004
:101C00000F498A684FF030001044EFF3098C80E8E8
:101C1000F01F202080F31288BFF36F8F094F4FF021
:101C200000668A698A603E60506F0023536780F3C4
:101C3000118802F1300090E8F01F8CF3098870479A
:101C4000C439002004ED00E01EF0040F0CBFEFF3D8
:101C50000880EFF30980816911F8021C0229FFD086
:101C600001B505F0A9F901BD42F8203C009B42F8FE
:101C70001C3C0A49019B42F8183C029B42F8143C68
:101C800021F001014FF0807342F8043C42F8081C37
:101C90000023203A02654367704700BF896E000049
:101CA000074B9860104681F30988002163B681F3E1
:101CB0001188BFF36F8F0022002305F0E5F800BF05
:101CC000C439002001B5EFF30580A0F110004FEA00
:101CD000C0000449014409C99847BDE801400249D0
:101CE0000847000020980000ED1C0000044B996894
:101CF0009869884203D003494FF080520A607047C8
:101D0000C439002004ED00E010B51D4C1D484521EC
:101D100005F0C5F8A36A9B0103D51B48452105F0D2
:101D2000BEF8A36ADC0103D51848452105F0B7F8D1
:101D3000134CA36A180303D51548452105F0AFF8E5
:101D4000A36A590303D51348452105F0A8F80C4CA4
:101D5000A36A9A0303D51048452105F0A0F8A36AA9
:101D6000DB0303D50D48452105F099F8044A936A31
:101D70006FEA03436FEA13439362002010BD00BF74
:101D800000ED00E020A400003DA4000055A40000E8
:101D900074A4000097A40000C1A40000E0A4000007
:101DA00070B5234C06460D462248452105F077F8CC
:101DB000A36AD90403D52048452105F070F8A36A29
:101DC0001A0503D51D48452105F069F8184CA36A8A
:101DD0009B0510D51A48452105F061F8A26BA36A4E
:101DE000180408D51748452105F059F81EB1A36A13
:101DF00023F40043A3620E4CA36A590503D512488D
:101E0000452105F04CF8A36ADA050BD50F484521AA
:101E100005F045F8064A936A002043F47F43936235
:101E2000287070BDA36A9B04F4D509484521EFE7EB
:101E300000ED00E010A500002BA5000041A500006A
:101E400059A5000077A5000091A50000B1A50000EC
:101E5000CEA5000070B5264C06460D462548452106
:101E600005F01DF8A36AD80603D52348452105F0DF
:101E700016F8A36A190703D52048452105F00FF885
:101E80001B4CA36A9A0710D51D48452105F007F899
:101E9000626BA36A1B0608D51A48452104F0FFFFB0
:101EA0001EB1A36A23F08003A362114CA36ADE076C
:101EB00003D51548452104F0F2FFA36A980603D51F
:101EC0001248452104F0EBFF094B9A6AD10658BF2E
:101ED0009A6A9A6A920642BF5A6A22F400525A6279
:101EE000034A936A002043F0FF039362287070BD99
:101EF00000ED00E002A600001DA6000041A50000C4
:101F000055A6000072A600008DA60000CEA5000018
:101F10002DE9F041544B5E688AB00F46C6F30804C1
:101F2000002585F31188BFF36F8F02F07F43B3F173
:101F30007F4F07D102F00C03082B05D14B484521F8
:101F400004F0ADFF2F4603E0120701D40746012538
:101F50004FF00008E31E8DF80780092B72D8DFE8E8
:101F600003F005666A6371717171716E3E4E40488F
:101F7000452104F094FFF46A8DF8078014F0020400
:101F800005D03C48452104F08AFF002406E0F36AAE
:101F9000002B1DDA3848452104F081FF9DF80730F9
:101FA0009BB92022394602A805F043F8099B002D71
:101FB00055D0C3F3080222B96FEA53236FEA4323D3
:101FC000099302A92046FFF769FD0AB0BDE8F08138
:101FD000F36A5B00E2D52948452104F060FFBB6944
:101FE00033F8022C4DF602739A4209D096F8283045
:101FF0006BB10DF107010120FFF72CFF0446CDE77F
:102000003A681F48452104F04AFF3C68C6E796F845
:1020100029302BB10DF107010120FFF7C1FEEDE7DB
:10202000738D9BB2002BB9D0FFF76EFEE6E70DF182
:1020300007010020E0E70DF107010020EDE711485E
:102040004521A0E71049114A114816F4F87F08BF4E
:102050000A46A4F11003452104F021FF95E723F47B
:10206000FF7323F00103ABE700ED00E0DFA6000003
:102070000FA700002BA7000051A7000064A70000D5
:1020800088A70000A9A70000B1A60000C6A600000E
:10209000D2A70000024A536943F01003536170470E
:1020A00000ED00E0EFF30880EFF3098101B572461F
:1020B000FFF72EFF01BD00BF044800232021C218F6
:1020C0000133302B82F80013F9D1704700E100E0B2
:1020D000002080F31488BFF36F8F07F0FFFA002011
:1020E0000D490860BFF34F8F0C4880F3088800F05B
:1020F0002BF8202080F3118809484FF40061401824
:1021000080F30988EFF314800221084380F31488D8
:10211000BFF36F8FFFF73EFD94ED00E0187F0020C6
:10212000588000200749D1F890200023C2F30722ED
:102130001846934200D17047C1F89830C1F8A0000A
:102140000133F6E700ED00E008B572B6002383F333
:102150001388FFF7E7FF144B4FF0FF32C3F88020DE
:10216000C3F88420C3F88820C3F88C20C3F89020DB
:10217000C3F89420C3F89820C3F89C20C3F88021AA
:10218000C3F88421C3F88821C3F88C21C3F89021B7
:10219000C3F89421C3F89821C3F89C2162B6BFF319
:1021A0004F8FBFF36F8F08BD00E100E0084B9B68C5
:1021B00083420BD1EFF3058343B1064B5A6842F0DB
:1021C00080525A605A6A22F400425A6204F04EB8B1
:1021D000C439002000ED00E0024B034A034801210E
:1021E00000F06CB80000022000000020DC9A000023
:1021F000F8B5244F154600228A420EDA4468002CB6
:102200003CD093B104F1FF3C14EA0C0F07D01E48F8
:10221000452104F044FE6FF015052846F8BD1F2C3B
:10222000F5D906681CEA060FF1D1202C0668D0F813
:1022300008C0EDB210D9B4F1004F0FD8013CB4FA88
:1022400084F4C4F11F046400072D4CEA040407D988
:102250000E482A464521DCE70824F5E73E24F3E74B
:1022600026F01F062E4346F0100644F00104C7F87E
:102270009850C7F89C600135C7F8A04001320C3077
:10228000BAE700BF00ED00E0EEA7000016A80000CE
:10229000044B0522C3F89420BFF34F8FBFF36F8F19
:1022A000704700BF00ED00E0BFF35F8F024B0022DC
:1022B000C3F89420704700BF00ED00E010B5034C58
:1022C00001232278FFF794FF207010BD02530020F5
:1022D00014490868082810B521D8FFF7E5FF124C0B
:1022E00049680022904201F10C0105D10F4B187092
:1022F000FFF7CEFF002010BDC4F8982051F80C3C29
:1023000023F01F03134343F01003C4F89C3051F82B
:10231000043C43F00103C4F8A0300132E2E74FF07F
:10232000FF30E8E7E89A000000ED00E002530020EB
:10233000014B1860704700BF0C0000204FF02003D5
:10234000EFF3118283F31288BFF36F8F06490123E5
:10235000C1F840354FF08041C1F8783582F31188DB
:10236000BFF36F8F0020704700E001404FF08043C3
:10237000C0B2C3F81C05BFF34F8F0549054BCA68AF
:1023800002F4E0621343CB60BFF34F8F00BFFDE761
:1023900000ED00E00400FA0520B1034B800143F09A
:1023A00001031847704700BF309A0000084B70B512
:1023B000C31A0D4607499B1004465943064840225C
:1023C00004F06AFE2B4601462046BDE870401847DF
:1023D000D0370020B76DDBB66097000073B50C4CAA
:1023E0000C4A4023041B00930D460B460A49A410D7
:1023F00061430646094804F07CFE011E05DA3046BA
:102400002B4602B0BDE87040184702B070BD00BF57
:10241000D037002061710000B76DDBB66097000017
:10242000002270B5012104461046FFF797FB1148C2
:1024300002F0F4F9104B984218D1206900F0CAF963
:1024400006F0B7FE26690D49304604F09CFC0028D2
:102450000BDB246909490125356404F11C0004F0F3
:1024600092FC002801DBE564002070BD6FF00400E1
:10247000FBE700BFB52400000000AD0B389B000057
:1024800001460C2309484B4370B5C418D4E90E56D5
:1024900000224033A263184404F0EBFD2DB1324614
:1024A0002B460348BDE87040184770BDD037002068
:1024B00060970000012810B504460AD003280CD00C
:1024C00078B9084B1B6C5B070BD1BDE81040FFF7D8
:1024D000D7BF00F08DF92046F7E7BDE8104000F0C7
:1024E00095B910BDD037002008B54FF02003EFF3A9
:1024F000118183F31288BFF36F8F124A136843F080
:10250000020013F0010310600CD04FF08042D2F8AB
:102510000C34D2F80C2413F0010303D00A4804F061
:10252000A8FD012381F31188BFF36F8F23B1BDE8AC
:1025300008400020FFF7A4BFBDE80840012006F0D6
:1025400045BE00BF20380020103800201FB50022F3
:102550000123CDE90223094ACDF800D06B46CDF81E
:1025600004D004F0F6FD002805DB4FF48042002380
:10257000684603F037FA05B05DF804FB7971000096
:10258000094BBFF35B8F53E8002F22F0020143E8B1
:1025900000100028F7D1BFF35B8FD30702D40120CE
:1025A00006F04CBE704700BF20380020024AC3B27C
:1025B0001C2003FB00207047D0370020F8B52849C5
:1025C000BFF35B8F0646012251E8003F41E800203F
:1025D0000028F9D1BFF35B8F33B9224922484B6001
:1025E000CB608A6004F0E2FB731E012B20D806F05A
:1025F000D1FE044610B91D4B1B7853BB4FF020038E
:10260000EFF3118583F31288BFF36F8F01244FF02E
:102610008047D7F81834D7F81824D20309D59B0778
:1026200001D0012E05D174B185F31188BFF36F8FEE
:10263000F8BD1CB12846FFF727FAEAE70021212060
:1026400003F0F4FDE5E74FF080430222C3F80423D2
:10265000EEE74FF080430222C3F808230546D6E791
:1026600024380020C0370020EC3700201457002009
:102670000D4BBFF35B8F012253E8001F002903D1EC
:1026800043E800200028F7D1BFF35B8F0AD1074948
:102690000023CB60064B4B6003238B60054B18680F
:1026A00004F084BB704700BF283800202C3800207D
:1026B000A92700003C38002008B5074B07481860E0
:1026C00006F05AFE30B90648452104F0E8FB6FF0E9
:1026D000120008BD0020FCE74038002008980000E8
:1026E00074A8000007B500220023CDE900230848A4
:1026F0004FF40032002303F0B5FF064B186804F0D6
:102700009EFB054B00221A6003B05DF804FB00BF7E
:10271000480100203C3800202838002037B51D4DE6
:10272000286883681C4CDB683921984770B1002306
:1027300023701A46217809B1012A20DD174A138037
:1027400002F07EF80123237003B030BD286883684F
:102750006A461B690C2198470028E8D1104A019B62
:1027600093FBF2F3009A03EB82030C4AB2F90020C8
:102770001BB29A1A002AB8BF524212B2DAE7094ACB
:102780001368013901332170136003B0BDE8304094
:10279000FFF7A8BF4038002003530020003A002074
:1027A00090D003004838002008B5074B1B682BB9B0
:1027B00002F046F8054B01221A7008BDBDE808403A
:1027C000034803F01DBA00BF403800200353002027
:1027D00010000020034B044A186000231360034AD2
:1027E000136070473C3800204438002048380020EF
:1027F000024B00221A70FFF73BBF00BF03530020BB
:10280000014806F04DBF00BF48010020024A13688E
:1028100001331360FFF766BF4438002008B5084B4A
:102820000848186006F0A8FD38B10748FFF780FD9A
:102830000548FEF7A1FD002008BD6FF01200FBE780
:102840004C380020A89700004D2800000A2838B511
:10285000074D044604D1286883680D215B689847BA
:1028600028688368E1B25B689847204638BD00BF9E
:102870004C38002030B54068047B01F01F05B2F5EC
:10288000001F45EA441585B04FF0000404D12846E6
:1028900002F07EFA002032E0B2F5800FCDE902446A
:1028A0002FD1B3F1007F0CBF042305238DF808302E
:1028B000836823FA01F1C9072FD4B2F1A07F2CD18C
:1028C0006A09012A05F01F031C4A03F5E07318BFCB
:1028D0004FF0A04252F82330DB071ED40DF107045D
:1028E0002146284602F0B8F9154B984214D12046EB
:1028F00002F000FA134B98420ED06FF00B0005B0B7
:1029000030BDB3F1C06F05D0B3F1007F0CBF02231F
:102910000123CBE70323C9E703940023194602AA46
:10292000284602F073F8074B984204D1012128464B
:1029300002F0E6F9AEE76FF00400E0E700030050B4
:102940000400AD0B0000AD0B10B502F0C3F9044656
:1029500068B902F097F9084B98420AD10748214616
:1029600002F074F9224605210620FFF7F7F800204F
:1029700010BD6FF00400FBE70000AD0B81290000E3
:10298000420970B5034602D0012A15D070BD0B4E26
:10299000326951680029F9D003F01F0301250C6842
:1029A0009D408A682A4002D04B6830469847002CE8
:1029B000ECD021462468F4E7014EE9E7789700005F
:1029C000909700002DE9F04347683B7B01F01F051D
:1029D00085B00E4645EA43151446CAB902A92846F1
:1029E00002F03AF90446284602F0FAF94A4B9842B6
:1029F00004D06FF0040005B0BDE8F083844205D137
:102A00009DF8080002F070F9A042F2D10020F2E730
:102A10004FF000090DF103013046CDE9029902F0B3
:102A20001BF94B46804602AA4946284601F0EEFFB4
:102A3000394B984202D06FF01500DCE7804503D196
:102A40009DF8030002F050F9A30351D540F206634C
:102A5000234040F2062293423BD00CD8062B15D0DF
:102A600004D89BB1022BE6D104230FE0B3F5007F1D
:102A7000E1D101230AE040F2024293422BD0B3F5A8
:102A8000C06F2AD0B3F5806FD5D102238DF8043002
:102A900084F48033C3F30043E0068DF8053054BF5F
:102AA000C4F34013032321038DF8063017D57B6848
:102AB000012101FA06F6C3F80865002201A928469B
:102AC00002F052F8144B984214BF6FF0150000202A
:102AD00091E70723DAE70523D8E70323D6E7620364
:102AE00041BF7B68012101FA06F6C3F80C65E4E7F3
:102AF000E3064FF0000354BFC4F3401403241A4606
:102B000001A928468DF8044001F080FF024B98424D
:102B10003FF47CAF8FE700BF0000AD0B014B0122FB
:102B20001A60704700C000400C2903690BD15B6A32
:102B3000064907484B4393FBF0F100FB113311604A
:102B40005360002070476FF08500704790D00300FD
:102B500040420F00044B00690022C3F80021D3F863
:102B6000003102F01FBF00BF00C000407FB5056903
:102B7000AB6A63B3392901D00C292BD105F11006BA
:102B80004FF0FF324FF0FF33304602F051FE134B4F
:102B90000193A86A0323002469460394029304F076
:102BA00005F94FF0FF324FF0FF33284602F01AFFCD
:102BB000A86A04F044F90A4BD3F808256A62012296
:102BC0005A60304602F0ACFE204604B070BD6FF093
:102BD0000A00FAE76FF08500F7E700BF1D2B000041
:102BE00000C0004010B504690020FFF7DFFCA062C0
:102BF0004FF0FF320021204606F0F4FB04F11000F4
:102C000006F0E9FB002201210C20FEF7A7FF0C20B3
:102C1000FEF772FF024B0122C3F80423002010BD0F
:102C200000C000402DE9F34104460569002201215E
:102C30000420FEF793FF63685C6A01AA0021204626
:102C400004F025FD002821DB019B22681979186812
:102C500004F03AFD002819DBAC680126D5E9023200
:102C600003EBC2039C4204D3284604F02AFB002055
:102C70000CE0206806F080FB58B9226816482379DA
:102C80001268452104F00BF96FF0120002B0BDE8A4
:102C9000F08120682179E388D0F810C0D0F808804E
:102CA000DCF80070DA0754BF43F4B01383F4D01398
:102CB00023F4801206FA01FEDB074CBF4EEA070739
:102CC00027EA0E07D8F80030CCF8007098470028A3
:102CD000DCDB0834C2E700BFB5A80000F0B5056929
:102CE000AB6C2C6D85B07BB99CB90022114628468F
:102CF00004F0C5FA2C6305F1200002F053FE002316
:102D000085F85C3005B0F0BD002C35D09C4228BF62
:102D10001C46696C466879B173B101F06043B3F148
:102D2000005F09D0082C28BF082405F15E07224661
:102D3000384604F07EF93946B2686B6C00919442D3
:102D400028BF1446AC651BB1AB6C002B18BF2346E3
:102D50000193EB6C02931BB12B6D002B18BF234624
:102D6000002269463046039302F086FA034B9842EC
:102D7000C8D06FF00404B8E71C46CAE70000AD0BEA
:102D800010B503780C46002B47D18B6C33B18A6D9C
:102D90009A4211D92148452104F081F8236D33B1BD
:102DA000A26D9A4220D91D48452104F078F8606D43
:102DB000BDE81040FFF792BF9B1A8B6473B94B6B51
:102DC00008334B638B6B013B8B6301F1480204F1C9
:102DD0003400383104F02EFA6064DFE74B6C002BCE
:102DE000DCD013444B64D9E79B1A23657BB9E36BB2
:102DF0000833E363236C013B236404F1500204F1C4
:102E0000400104F13C0004F015FAE064CFE7E36C04
:102E1000002BCCD01344E364C9E710BDDEA800004A
:102E20002DE9F04F8BB0046901938B889F04804695
:102E30000E4691462FD44FF0FF324FF0FF3304F18E
:102E4000100002F0CFFD6660D8F804B0D8F810A0EA
:102E5000DBF80C3003939AF85D30029323B1DAF873
:102E600000309E4200F0B180B7883D051AD58948F0
:102E7000452104F014F86FF0850523689B8813F44E
:102E8000005304D1636004F1100002F08BFD28466A
:102E90000BB0BDE8F08FA369002BCCD163689942D9
:102EA000C9D1D1E7F80708D5D8F800207A484521DC
:102EB00003F0F5FF6FF01505DFE7390704D5774814
:102EC000452103F0ECFFF5E7C7F34513082B02D0CB
:102ED00073484521F5E73568724B9D4202D8724828
:102EE0004521EEE70BF1100EBEE80F000DF1140CBA
:102EF000ACE80F00DEF80030CCF80030039BAB42AA
:102F000028BF2B461D46694B9D4240D9684B9D42C8
:102F100040D9684B9D4240D9674B9D4240D9674B91
:102F20009D4240D9664B9D4240D3664B9D4240D363
:102F3000654B9D4234BF4FF020654FF0A055BA0756
:102F4000079507F0040337D5002B14BF0323022392
:102F50008DF82030029BC7F300178DF821702BB13C
:102F6000584602F041F900238AF85D30574A53462B
:102F700005A9584602F076F8554B984202461FD0F4
:102F80005448452103F08BFF6FF0040575E74FF0BF
:102F90000075D4E74FF08065D1E74FF00065CEE7CC
:102FA0004FF08055CBE74FF00055C8E74FF0804514
:102FB000C5E74FF00045C2E7003B18BF0123C7E754
:102FC00001238AF85D30CAF80060012384F85C3080
:102FD000B9F1000F4CD1C4F834904A46A26304F111
:102FE000380104F1480204F1340004F023F9019B94
:102FF0006064002B44D1E363236404F1500204F1C4
:10300000400104F13C0004F015F900263246E0646A
:1030100001212046266304F032F94046FFF75EFEA8
:10302000256DA36C27469D4238BF1D464FF4FA53C9
:103030005D4357F8203B4FF4004C1B68B5FBF3F59C
:103040003146C83540F2E7304FF47A720023E5FB91
:103050000C01FDF755F802460B46384602F0C2FC5B
:10306000B0B11D48452103F01AFF6FF0730504E766
:10307000D9F800206263002AB0D0D9F80420ADE767
:10308000019B1B68E363002BB6D0019B5B68B3E731
:10309000256BF2E601A9000020A9000047A9000065
:1030A0006BA9000047E801009FA900008FD0030032
:1030B0001FA107003F420F007F841E00FF083D0054
:1030C00000127A000024F4000048E801812D00007D
:1030D0000000AD0BD5A9000001AA00000048704710
:1030E000349C00002DE9F04F044689B000694FF090
:1030F000FF32012106F076F9D4F80480D8F80000F8
:1031000006F03AF910B96FF012075EE0D8F80C300B
:10311000BBBB256906F0BEFA4FF47A72A0FB02032E
:1031200002FB0133C00B40EA43402B69834203D1C9
:103130002120002103F07AF80023CDE9003380221A
:10314000AB21204604F0EDF818B92120002103F04E
:103150006DF8206904F0DFF80327002304AE01971F
:1031600000961A469F21204604F0DBF805462069A8
:1031700004F0CFF85DB18D482A46452103F08FFE5B
:10318000C1E7186806F0F8F80028C2D1BBE73A4654
:1031900008F11C01304603F03BFF0746C8B198F820
:1031A0001E30039398F81D30029398F81C30019359
:1031B0009DF8123000939DF810209DF811307C4846
:1031C000452103F06CFE6FF01507384609B0BDE8E5
:1031D000F08F98F8243006AEABB3206904F09BF86A
:1031E0000123CDE900633A463B460521204604F021
:1031F00098F8051E40F0D7809DF8185005B398F850
:10320000243025EA03050023CDE90033802206217E
:1032100020468DF8185004F084F8054660B9012165
:103220000346CDE900618022204604F07AF8054685
:10323000204604F0EDF81DB15E482A4645219DE781
:10324000206904F066F86368D4F8109000210691B4
:103250007160DA7F8DF81B201D6A6B688B4209F163
:10326000150849DA23F000430122A3F1200AC3F133
:10327000200102FA0AFA22FA01F14AEA010A02FAE4
:1032800003F3DB0843EA4A7A22684B484FEA1A53B1
:10329000492103F004FE08220021404603F0D4FE39
:1032A0004FF0010B59460BF1010B424628465FFADD
:1032B0008BFB04F0D1F9BBF1050F08F10208F1D145
:1032C0009DF81B300A2B81BFAB6AC3F303120123A5
:1032D000934098BF4FF48073A9F81E3063681B6950
:1032E0009A450CD03548452103F0D9FD6FF01505FE
:1032F00033482A46452141E701338A46C1E72B6816
:1033000013F4C02F3CD0294605AA304600F024F91A
:103310000546A8BB9DF81460731EDBB2FD2B2FD8A9
:10332000B2072AD0206903F0F6FFB30713D40023B5
:10333000CDE900338022B721204603F0F2FF054695
:10334000A8B1206903F0E5FFD5B11E482A46452102
:1033500003F0A5FDCCE7CDE900552B4680220621E0
:10336000204603F0DEFF05460028E0D0E9E72269A9
:10337000137D43F001031375E3E76FF08505E4E780
:1033800063681A69D3E9053103FB01F082423FF417
:103390001CAF0D480091452103F081FD0B486FF0F3
:1033A00015024521EAE63FF72AAF45E740AA0000AB
:1033B0005EAA0000A1AA0000BBAA0000D2AA0000D9
:1033C00025AB0000FFAA00003FAB00006FAB000080
:1033D000024B0B6001231360704700BFB43800201C
:1033E000004870478C9C000070B50D462846194671
:1033F00016461C4604F0F3F840B9094823462A460D
:10340000452103F04CFD6FF0150070BD34B122462C
:103410002946304603F00DFE0020F6E72046F4E78B
:1034200094AB000010B5012211460648064C05F089
:10343000D9FF05F065FF206005F05EFF60600020A9
:1034400010BD00BFBC380020B4380020F8B50E46CF
:10345000144605F051FF21460546304604F0BFF8FA
:10346000374648B3B6FBF5F305FB136323B9B4FB4A
:10347000F5F005FB104040B1124823463246452185
:1034800003F00DFD6FF0150015E0A54213D84FF0C5
:10349000FF324FF0FF330C4802F0A4FA05F02CFF86
:1034A0000546384601F0A2FD641B2F44F9D10648B9
:1034B00002F078FA2046F8BD0448234632464521FA
:1034C000DEE700BFB6AB0000BC38002094AB0000C4
:1034D000F8B50E463046194617461C4604F07FF8EC
:1034E00040B9194823463246452103F0D8FC6FF015
:1034F0001500F8BD44EA060515F0030504D013488D
:10350000234632464521F0E7DCB111484FF0FF3247
:103510004FF0FF3302F066FA24F00304AC4205EBEF
:10352000060009D10B4AD2F80034DB07FBD5084866
:1035300002F038FA0020DCE7795901F077FD043514
:10354000ECE72046D5E700BF94AB0000DAAB000003
:10355000BC38002000E00140C3780F2B14D9C96BA0
:103560000B480B0E13708B0200EA911003F47C03DE
:103570000906034301F0FE4110680B430549014071
:103580000B431360002070476FF08500704700BF49
:1035900000FF0300FF000080074BD3F8082142B171
:1035A0000020C3F80801D3F80821D3F818350B70B0
:1035B00070474FF0FF30704700200040024BD3F8B7
:1035C0008004C3F8800470470020004070B54B7938
:1035D000012B24D0032B1FD110268B79032B1BD159
:1035E000CC79CCB90A79012A1BD0022A1BD09AB90E
:1035F00014460B68B3F5164F66D031D8B3F5165F95
:1036000064D01AD8B3F5966F62D00ED8B3F5967F12
:1036100061D0B3F5167F61D06FF0850053E00026CE
:10362000DBE74FF480740E22E3E7B3F5166F58D052
:10363000B3F5965FF0D1354B39E0B3F5E14F53D098
:1036400007D8B3F5615F51D0B3F5964FE4D1304B55
:103650002DE047F61225AB42DED14FF4000326E001
:10366000B3F5613F45D011D8B3F5963F43D008D8A4
:103670004DF6C025AB4240D0B3F5614FCCD1254BC0
:1036800015E0B3F5E13FC7D1234B10E0B3F5612F4F
:1036900036D007D8214DAB4234D0B3F5E12FBBD1A2
:1036A0001F4B04E01F4DAB42B6D14FF0805305696C
:1036B0001D4832432243C0F82435C0F86C2503C9A5
:1036C00085E80300002070BD184BF0E7184BEEE7CB
:1036D0004FF49E23EBE74FF4A033E8E74FF41C339D
:1036E000E5E74FF41D23E2E7124BE0E74FF46C13DC
:1036F000DDE7114BDBE7114BD9E74FF46503D6E764
:103700000F4BD4E74FF08063D1E700BF00B0130048
:1037100000A04E0000F0EB0000E0D70190D00300C5
:1037200000705F0740420F000020004000509D00E5
:103730000050270000F0750000B0AF0300903A0180
:1037400000D0BE0EF7B54368124C1E680769002111
:103750000546C4F8001501AA304603F098FF00287A
:1037600015DB019B32681979186803F0ADFF00285A
:103770000DDB39462846FFF729FF40B90423C4F87A
:103780000035C4F80801D4F808310123236003B0E0
:10379000F0BD00BF00200040F8B50E4605F0FAFD70
:1037A0001A4D78BB64240127BFF35B8F55E8003FB7
:1037B000002B03D145E80072002AF7D1BFF35B8FDD
:1037C00007D021200021013C02F030FD14F0FF045D
:1037D000EAD10F4C0023C4F81C31D4F81C3101236A
:1037E000A360C4F81C654FF47A76D4F81C3123B971
:1037F000012005F091FC013EF7D10123E360002395
:103800002B60F8BD01232B60E3E700BFCC3800201C
:103810000020004010B501238340114ABFF35B8FA5
:10382000DC4352E8001F01EA040C42E800CEBEF17E
:10383000000FF6D1BFF35B8F4FF4803202FA00F035
:1038400002F1804202F58052C2F80803BFF35F8F95
:10385000BFF36F8F0B4214BF0120002010BD00BFCB
:10386000D43800201949F8B5044622F07F4508688D
:10387000C1E90023A5F50013101AB3F5400F22D2B9
:10388000134B1B681A0A1B065E19124B42F1000704
:10389000C3E90067012602F02BFEA30003F1804379
:1038A00003F58833D3F84025AA420BD11EB94FF453
:1038B0000002C3F84025084B4FF4803000FA04F4AE
:1038C000C3F84443F8BD0026E5E700BF9801002097
:1038D000D8380020800100200010014019B3BFF348
:1038E0005B8F0123104A834052E8001F194342E8CE
:1038F000001CBCF1000FF7D1BFF35B8F0B4A4FF4F4
:1039000080338340C2F80433094BBFF35B8F1B68DD
:10391000BFF35B8F23FA00F0C30742BF054B4FF4A0
:103920000032C3F800217047D43800200010014055
:10393000D038002000E100E00D4B1868010A0006B5
:10394000BFF35F8F0B4BD3F80435181841F100011A
:10395000B3F5801F0AD2084BD3E90023904271EBE4
:10396000030303D210F1807041F10001704700BFE2
:10397000D838002000100140800100202DE9F04FD0
:1039800085B0164698460546FFF744FF0090FFF7BE
:10399000D3FFB04271EB080378D2464B301A68EB84
:1039A0000101984271F1000380F08180424B03EBEA
:1039B0000513D3E902ABD84508BF564551D04FEAAD
:1039C000850909F1804905F1500709F58839BF00DB
:1039D0004FF4803101FA05F3BFB226F07F4207F1C0
:1039E00080470193D9F84005344B07F588371446D2
:1039F000D3F80415401A20F07F4021F07F4C0128B5
:103A0000C9F840C507D1CDE90221132005F044FED5
:103A1000DDE90221294B01F1020CA4EB0C0020F09E
:103A20007F40B0F5000F88BF6446002038603868DA
:103A30000198C3F8440324F07F40C9F84005D3F847
:103A40000405814206D0201A023820F07F40B0F5EC
:103A5000000F19D8A41A24F07F4414EB060A48F189
:103A6000000B15490E982B0101EB0512C2E902ABC0
:103A7000C8500F9B5360002428460099FFF72EFF83
:103A8000204605B0BDE8F08F2046B1E701230C4A7F
:103A9000BFF35B8FAB4052E8001F194342E80010B0
:103AA0000028F8D1BFF35B8FB246C346D9E76FF069
:103AB0001504E1E701000001880100200010014029
:103AC000D038002073B5194B194D00244FF0FF304A
:103AD0004FF0FF31C5F80845C3E902014FF48033C8
:103AE000C5F80433134B02264FF400320121C5F808
:103AF00004631120C3F880212246FEF72FF811201D
:103B0000FDF7FAFF0C4A0123AB602B6013600B4BEF
:103B10000B4A0093019400232046FFF72FFF304605
:103B2000FEF74CFD204602B070BD00BF88010020AA
:103B30000010014000E100E0D438002065380000AA
:103B4000FFFF7F002DE9F743354CD4F804339A0783
:103B50000BD5D4F8043143B1324A0023C4F8043100
:103B6000D4F804311368013313604FF02003EFF3EE
:103B7000118283F31288BFF36F8FD4F80433DB0311
:103B800012D5BFF35B8F284B53E8001F21F00100D3
:103B900043E80006002EF7D1BFF35B8F002936D132
:103BA000D4F84031002B32D1002382F31188BFF3C7
:103BB0006F8F4BB3FFF7C0FE4FF02003EFF3118C74
:103BC00083F31288BFF36F8F184BD3E90267B042BB
:103BD00071EB07024FF0000220D34FF0FF384FF097
:103BE000FF39D3E90015C3E902891A604FF4803325
:103BF000C4F848338CF31188BFF36F8F21B100955F
:103C000032463B460020884703B0BDE8F0830023DE
:103C1000C4F84031D4F840310123C6E71146E9E742
:103C200000100140D8380020D03800208801002042
:103C3000431C13B521D0012821DDB0F5000F20DA97
:103C4000441EFFF779FE104BD3E90013401AB0F57C
:103C5000000F28BF0024013002190C48824228BFFF
:103C6000024652184FF0000009490190009143F1BB
:103C70000003FFF783FE02B010BD0448E0E7002414
:103C8000DFE7024CDDE700BF98010020FFFF7F0067
:103C90006538000008B5FFF74FFE024B1B68C01ADD
:103CA00008BD00BF9801002000F01F014009012855
:103CB000044B4FF0010218BF4FF0A0438A40C3F8F5
:103CC0000C2570470003005000F48053002B30B5E2
:103CD00007BF14460D4601240025C0F3811200F0F1
:103CE0001F0110F0200F00F4706040EA8202064BC2
:103CF00042EA050208BF4FF0A04301F5E07142EA35
:103D0000440243F8212030BD0003005000F01F01A1
:103D100040090128044B4FF0010218BF4FF0A043A7
:103D20008A40C3F808257047000300500C4A30B59C
:103D300013680C4D002405EB0311D1F80818C9B223
:103D400021B904B113600360002008E00133072BA0
:103D50004FF00104EFD9036013606FF01B0030BD1A
:103D6000DC38002000E00140034808B5452103F09D
:103D700096F80020FEF7FAFA0EAC000030B5816824
:103D800085B0103921F00704054603F0EEF8102243
:103D90000146684603F058F907491022684603F0C7
:103DA00048F910236A462146284603F0A2F8003855
:103DB00018BF012005B030BDFC9D000030B50C4699
:103DC000816887B0102302AA1039054603F075F800
:103DD000002802DA012007B030BD102202A92846CF
:103DE00003F02EFD90B303232370284603F039FD22
:103DF000012301460DF10702284603F05EF8002872
:103E0000E8DB9DF8073003F00F021B096270237195
:103E100001220DF10701284603F012FD10B9637865
:103E2000042B03D90123637000232371AA68183A75
:103E300022F00702083AA11C284603F02CFD0028B6
:103E4000C8D1E11C284603F080FDC4E704491022D4
:103E500002A803F0DDF8002814BF02230123C3E702
:103E6000FC9D00002DE9F04385B00646694603201D
:103E700003F071FD054618B1FF2005B0BDE8F083E1
:103E800002A9012003F067FD012804463FD12D4817
:103E90003246492103F003F803238DF808308DF8EA
:103EA00009408DF80A308DF80B308DF80C509DF8D4
:103EB00000509DF808609DF803709DF80B809DF8F8
:103EC0000290214C00222078294603F0D0FC18B340
:103ED0006078314603F0CBFCF0B1A378042B01D01D
:103EE000BB4219D1E378042B01D0434514D1237987
:103EF000042B0FD16379022B19D1144A144849219C
:103F000002F0CDFF6079831E022BB6D9B4E70028FA
:103F1000CDD0B1E74B45EDD00132032A04F10604C0
:103F2000D1D10C48492102F0BAFF0120A5E7032BAB
:103F300005D0094A0949042B18BF0A46DEE7084A9A
:103F4000DCE700BF41AC0000B4AC000037AC0000BF
:103F50008CAC00009FAC000030AC00007AA10000E7
:103F60003CAC000001680E4A9142034615D1C1697C
:103F7000A2F11022A2F1EF1291420ED18268012A21
:103F80000BD8C26812B101698A4206D0586928B1BB
:103F90009B691B1A5842584170470120704700BF67
:103FA00055AA00FF0D4B70B59E68A6B13046FFF7CD
:103FB000D9FF044678B9F3686BB935690DB9204665
:103FC00070BD2846FFF7CEFF28B9EB68B34202D197
:103FD0002E462D69F2E70124F1E700BFE03800200A
:103FE0002DE9F843404F3C68D4B1BC68C4B1002807
:103FF0004DD000294BD001FB00F5B5FBF0F0884215
:1040000045D1281D43D8A9070DD025F00306043655
:10401000FC6803E06368B3423BD2A469002CF9D189
:104020002046BDE8F8832E46F2E7F86044E006F14A
:10403000200C04EB0C03203959600021C3E9021461
:10404000DFF8A8E02169196144F80CE0DFF8A0C0AE
:10405000C3F81CC001B1CB60C3E90520AAB19361CC
:104060009A6902B1536123610023C4E905333B69B6
:104070004FF00109DB07C4E901692DD5FFF792FF75
:1040800050B31C4B48461B6825E0FB60E8E7002462
:10409000C6E7A3681BB1174B01201B6898476168EE
:1040A000891B2329D4E9052004F12008BFD8012366
:1040B000A360002AB9D09061A36903B15A610023BB
:1040C000C4E905333B69DA0706D5FFF76BFF18B182
:1040D000084B1B68012098472A4600214046444669
:1040E00002F0B2FF9CE700BFE038002055AA00FFB5
:1040F000669911EEA00000202DE9F0410546002848
:104100007CD03F4F3B68002B78D0BA68002A75D02E
:10411000834203D87A681344984203D3394B012071
:104120001B689847A5F120042046FFF71BFF18B134
:10413000344B01201B68984755F8183C012B03D0DD
:10414000304B01201B68984755F8146C002345F844
:10415000183CAEB1B26892B955F81C3C03F120028C
:1041600073681344736055F8103C336103B1DE602B
:1041700020462022002102F067FF234634461E46D7
:104180002069002832D08368002B2FD163684268F1
:1041900020331344D4E90521636003692361DAB94C
:1041A00001BB426981696261A161EAB19461A2695E
:1041B00002B1546103B1DC602022002102F044FF0F
:1041C0003B699B071AD5FFF7EDFEB8B10D4BBDE873
:1041D000F0411B68012018479161A1690029E0D0D6
:1041E0004A61DEE7F960F8E7FC60E0E7002EE7D11E
:1041F000FB68A36103B15C61FC60E1E7BDE8F081AD
:10420000E0380020A000002038B514220D460446F6
:104210000021124802F018FF1149124800F032F84C
:10422000232D1AD914F003031FBF043DED18C3F169
:104230000403E4182A460021204602F005FF074B3C
:10424000094A9C60C3E900452260A2F11022203D8A
:10425000A2F1EF126560E261DC6038BDE038002059
:10426000F9400000E13F000055AA00FF014B1B6828
:10427000184700BF9C000020014B1B68184700BF77
:10428000A4000020024B1860024B00201960704708
:104290009C000020A40000200A4619B1024B002116
:1042A0001B681847704700BFA8000020F8B500F150
:1042B00008064768044630460D4603F02FFF874244
:1042C00016D16368B3F5807F12D80021304604F020
:1042D00084F800280CDD0021304603F0F2FE38B1EE
:1042E00045B9002104F1140004F077F800281EDC21
:1042F0001B481EE004F12C060021304604F06DF846
:104300000028F5DD0021304603F0DBFE0028EFD069
:1043100004F138060021304604F05FF80028E7DD9C
:104320000021304603F0CDFE0028DAD1E0E70DB9D8
:104330000020F8BD002104F1440004F04EF80028EC
:10434000D6DD002104F1500004F047F80028CFDD4D
:10435000002104F15C0004F040F80028E8DCC7E725
:1043600080BFFFFF70B500210446FFF79FFF0546A1
:10437000B8B904F10806304603F0B4FE7F2810D91E
:1043800014342946204603F09CFE50B1204603F029
:10439000A9FE012805D93146204603F0DDFF00289B
:1043A00000DB014D284670BD00BEFFFFF0B50C4696
:1043B00087B0002105461646FFF778FF80BB03A8AB
:1043C00003F0ACFD21466A6803A803F0ADFE044685
:1043D000D0B905F10804214603A803F0BDFF002869
:1043E0001BDA05F1680303A9009305F114022346C3
:1043F00008466F6804F017FB044628B93A46314670
:1044000003A803F0B2FE044603A803F08DFD0CB12F
:10441000A4F58544204607B0F0BD6FF00304F3E730
:10442000004CF7E780BFFFFF0023C0E90033C1B9AC
:10443000194A1A4BDFF868C0C0E90223194B1A4A1F
:10444000C0E904C3194BC0E90623194B036203F109
:104450007453A3F52303A3F69243436281660020BD
:104460007047144B144ADFF854C0C0E9022303F12B
:10447000794303F5740303F501630361104BC0E94D
:1044800005C303F1D14303F5C01303F51E63C361F4
:104490000C4B03620C4BE0E767E6096A85AE67BB2D
:1044A00072F36E3C3AF54FA57F520E518C68059B16
:1044B000ABD9831F07D57C36D89E05C139590EF775
:1044C000310BC0FFA78FF964A44FFABE2DE9F04F5E
:1044D000D1B048AB019300F1080600F12803019A1E
:1044E0000493334653F8040B42F8040B04988342B8
:1044F000F8D14F9B02934CADDDE94AE395E82011DA
:10450000DDE948470393454B059306AA4FF00009A0
:10451000B9F10F0F6AD84B7891F800B091F802A06A
:104520001B0443EA0B6391F803B043EA0B0343EA2D
:104530000A234FEAF52080EAB51080EA756A8CEA12
:104540000800DDF814B09360284080EA0C00504465
:104550005BF804ABCDF814B0824402985344034492
:104560004FEA743A44EA07008AEAB40A00EA0E0005
:1045700004EA070B8AEAB45A40EA0B00504409F1F6
:104580000109DDF80CA0B9F1400F9A44CDE902CE43
:10459000034402F1040201F1040120D1CDE94D5898
:1045A000CDE94834CDF83CC1CDF830A14A97079009
:1045B000CDF82CE106930199336851F8042B019151
:1045C000134446F8043B049BB342F4D106A84FF4CD
:1045D0009471FFF761FE002051B0BDE8F08FBE4638
:1045E000C4462746A8461C46554691E7136852F82C
:1045F00034BC52F8380C4FEAF34A8AEA734A8AEA22
:10460000932A52F8143C03444FEABB4080EAFB1063
:104610009A4480EADB0353448BE700BFD09C000040
:10462000024AD2F80034002BFBD0704700E0014072
:104630004FF0805310B5D3F830210D2A55D14FF0EB
:1046400080410022C1F80C21C1F81021C1F83825A1
:10465000484AD3F80404C2F82005D3F80804C2F885
:104660002405D3F80C04C2F82805D3F81004C2F8C6
:104670002C05D3F81404C2F83005D3F81804C2F896
:104680003405D3F81C04C2F84005D3F82004C2F85E
:104690004405D3F82404C2F84805D3F82804C2F826
:1046A0004C05D3F82C04C2F85005D3F83004C2F8F6
:1046B0005405D3F83404C2F86005D3F83804C2F8BE
:1046C0006405D3F83C04C2F86805D3F84004C2F886
:1046D0006C05D3F84434C2F87035D1F80034DB07E8
:1046E00009D56FF00103C1F800344FF08053D3F8BF
:1046F00030310D2B0CD14FF08053D3F834313BB116
:104700004FF01023D3F808224FF08043C3F8582508
:104710004FF01023D3F80022002A03DBD3F8043231
:10472000002B22DA144901234FF01020C1F8043580
:104730001224FFF775FFC0F80042FFF771FFC0F8C1
:104740000442FFF76DFF0023C1F80435FFF768FF4F
:10475000BFF34F8F09490A4BCA6802F4E062134362
:10476000CB60BFF34F8F00BFFDE7064B064A1A60D0
:1047700010BD00BF00C0004000E0014000ED00E0BF
:104780000400FA05AC0000200090D00370B50125AC
:104790000268B2FA82F3C3F11F035E1CDCB214D0CC
:1047A000BFF35B8F05FA03F322EA030350E8006FBF
:1047B000964204D140E8003CBCF1000FF6D1BFF3B3
:1047C0005B8FE5D102480C7070BD0248FCE700BF6A
:1047D0000000AD0B0200AD0B0368CB40DB0710B54A
:1047E00015D4012303FA01F10368BFF35B8F41EA9B
:1047F000030250E8004F9C4204D140E8002CBCF179
:10480000000FF6D1BFF35B8FEED1024810BD024816
:10481000FCE700BF0000AD0B0400AD0B054B1A799F
:104820002AB95A71012218601A7103487047034867
:10483000704700BFF43800200000AD0B0C00AD0B3A
:104840004FF08043D3F80C24D3F80C14C80316D5CA
:10485000D10714D5D3F81824D20310D50A494A79C0
:1048600002F0FF006AB9C3F80C01D3F80C21074825
:104870000822C3F8042301224A711A6170470448D0
:1048800070470448704700BFF43800200000AD0BAB
:104890000500AD0B0B00AD0B4FF0804310B5D3F806
:1048A000002152B10020C3F80001D3F800210122F9
:1048B000C3F80823164B1B6898474FF08043D3F882
:1048C00004215AB10022C3F80421D3F804210222A2
:1048D000C3F808230E4B01201B6898474FF0804314
:1048E000D3F80C2192B1D3F8042312070ED500227D
:1048F000C3F80C21D3F80C110821C3F80813044B9A
:104900005A71BDE810401B680320184710BD00BF56
:10491000F4380020036803F01F025B09012B0260DA
:10492000024818BF4FF0A040704700BF000300507E
:10493000034B083033F81000C0F34010704700BF3D
:10494000B000002070B500F108030C4C34F81330AF
:10495000DA0505460E4607D5C3F3432304EBC3022D
:1049600054F8333052689847A3682BB1E268314657
:104970002846BDE87040184770BD00BFB000002059
:10498000124A083010B432F81030D9051BD5C3F3E1
:10499000432123F4F85322F8103002F110040020D0
:1049A00034F8023B13F4807F03D0C3F343239942CE
:1049B00009D001302A28F3D1002342F831300448CD
:1049C00010BCFFF709BF10BC704700BFB00000204B
:1049D0001801002038B50246FFF7AAFF094C02F182
:1049E000080540B134F8153007495B0B03F5A27395
:1049F000002041F823001046FFF7C2FF002324F8EF
:104A0000153038BDB0000020006000402DE9FF41A6
:104A1000044617461D4621B34E4E00F1080836F8ED
:104A200018309B0706D5FFF783FF18B14A4804B03A
:104A3000BDE8F0810023CDE900338DF80E308DF80C
:104A40000F300DF10F020B4620460DF10E0104F060
:104A5000F7FB36F8183023F0020343F0010326F881
:104A6000183097B13B4B3E787A6804F1080033F870
:104A700010108F070CD5002AD8D133F8102022F05F
:104A80001C0242EA860223F81020CDBB3348CEE751
:104A900021F02001C904C90C23F81010002AECD021
:104AA000032EC3D817782EB92D4A07F5A27142F804
:104AB0002160E2E7BA0002F1804202F5C04241EA19
:104AC0004731D2F810C52CF0030CC2F810C5D2F84B
:104AD00010C52CF44F3C2CF4407CC2F810C5D2F821
:104AE00010E54FEA042C0CF47C5C4EEA064E4CEACE
:104AF0000E0C41F0200123F81010C2F810C5BCE7DD
:104B0000D5E900672046FFF73BFF002EBED0114DD0
:104B10002B689E4204D16B689F4201D100220AE0BB
:104B200010480DF10F01FFF731FE0C4B98427FF456
:104B30007EAF9DF80F2045F8326005EBC2030834C4
:104B40005F6035F8143043EA422343F4807325F85C
:104B500014309BE7B00000200400AD0B0000AD0B4B
:104B60000060004018010020F0B5044685B01546ED
:104B700019B3334E00F1080736F81720930703D412
:104B8000FFF7D6FE002858D112F01C0F02D04B7848
:104B9000012B52D001238DF80F300023CDE90013F3
:104BA0004A1C8B1C20460DF10F0104F049FB36F81E
:104BB000173043F0030326F8173015B9214805B024
:104BC000F0BD1F4E04F1080736F81700830734D5EF
:104BD00095F800C06146890020F0200001F1804175
:104BE000C00401F5C041C00C26F817000023C1F82D
:104BF00010356A78002AE1D0D1F81035AD7823F469
:104C0000991323F4F853C1F81035D1F810E52302B5
:104C100003F47C53120402F4403243EA0E031343BC
:104C20002A0502F4801240EA4C30134340F0200081
:104C300026F81700C1F81035C0E70348BFE700BFEA
:104C4000B00000200000AD0B0400AD0B014BC3E928
:104C500002017047B000002008B50246FFF768FE69
:104C600038B1054B0548083233F812305B0B0B7036
:104C700008BD0348FCE700BFB00000200000AD0BFA
:104C80000400AD0B38B50F4C94F86C50BDB95422EC
:104C9000294604F1100002F0D7F90620FCF72CFF9A
:104CA000094B0A48C3F87C51D3F87C214FF00042ED
:104CB000C3F80423012384F86C30A36638BD04488C
:104CC000FCE700BFB0000020006000400000AD0B1A
:104CD0000500AD0B034B93F86C00003818BF0120A2
:104CE000704700BFB000002001460148FFF774BDC7
:104CF0001401002001460148FFF748BD14010020BF
:104D000037B50446FFF714FE04F108021E4B33F8D2
:104D10001230E8B113F002051AD15B0B9A0002F1D0
:104D2000804000F5C24002F1804202F5C0420560B9
:104D30000068D2F8100540F00100C2F8100529B152
:104D4000012202FA03F3114AC2F8043303B030BD62
:104D5000C3F38203042B12D0052B12D001A80194B7
:104D6000FFF7D8FD019BD0F81015D94001F00101E3
:104D70000231204603B0BDE8304004F0A8BA032158
:104D8000F7E70221F5E700BFB00000200060004017
:104D900008B50246FFF7CCFDC0B102F108010E4B89
:104DA00033F81130990711D45B0B01229A409B0014
:104DB0000A4903F1804303F5C043C1F80823D3F83F
:104DC000102522F00302C3F8102508BDBDE80840F5
:104DD0000021104604F07BBAB000002000600040C3
:104DE0000E4B00F1080213B533F81230DB0704460E
:104DF00011D5FFF7CDFF2046FFF7ECFD01A8019488
:104E0000FFF788FD019B03F5E073022240F82320A1
:104E1000034802B010BD0348FBE700BFB00000200C
:104E20000000AD0B0400AD0B2DE9F04F644B65485D
:104E30006549002687B0012234461D6835B1D0F897
:104E4000045315421EBF1C601D68164304338B4279
:104E50004FEA4202F1D1DFF86C81D8F87C31002BA7
:104E600000F091804FF0A043D3F820250492C3F8BE
:104E70002025D3F820280592C3F8202800270DF11B
:104E800010097B0100934FF0010A49E0009B4F4A53
:104E900094FAA4F4B4FA84F41C4404F10803E0087E
:104EA00032F81330039404F007020AFA02FC19F8EE
:104EB000002022EA0C0209F8002003A8C3F38205AF
:104EC0009908FFF727FD039A02F5E0724B0750F8A7
:104ED0002220AB46C2F3014229D520465946D5B21D
:104EE000FFF730FD03A80394FFF714FD039B03F5C0
:104EF000E07350F82330C3F301439D4207D10021F2
:104F0000204604F0E4F92946204604F0E0F903A81D
:104F10000394FFF7FFFC039B0AFA03F3C0F8203564
:104F200059F82740002CB1D1CFB90127A9E7022AAF
:104F30000CBF032102212046019204F0C8F9032D81
:104F400004D0019A022A06D1012DE0D1594620460B
:104F5000FFF7F8FCDBE7032AD9D1022DF5E7C8F803
:104F60007C41D8F87C311A494FF0A043D3F8202572
:104F70000492C3F82025D1F820350593C1F82035D7
:104F800013437FF47BAF012416B907B0BDE8F08F5F
:104F900096FAA6F3B3FA83F304FA03F29B0003F143
:104FA000804303F5C04326EA0206D3F81005D3F880
:104FB0001015C0F30520C1F30141FFF7C3FCE3E77F
:104FC000006100400060004020610040B00000200F
:104FD00000030050044AD2F80034DB07FBD501601F
:104FE000BFF35F8F704700BF00E001404FF0805378
:104FF0001A69B0FBF2F302FB130373B9084B0222E8
:10500000C3F80425C3F80805D3F80024D207FBD55C
:1050100000220448C3F8042570470348704700BFC6
:1050200000E001400000AD0B0A00AD0B10B5054CCF
:105030000123C4F80435FFF7CDFF0023C4F804357D
:1050400010BD00BF00E00140036803F01F025B09D0
:10505000012B0260024818BF4FF0A040704700BF0C
:10506000000300502DE9F3475C4E0C4601794FEAEE
:10507000411906EB411107460D7F002D40F0AC8031
:10508000D0F80080E57B4B608B7F46F809202279C1
:1050900065F3000362F341038B77E378CB77D0F8B5
:1050A00000A0002D54D1A368217B2078B3F1A05F2C
:1050B00008BF0325012994BF0021012104F032F922
:1050C0002378019301A8FFF7BFFF019B2D0203F591
:1050D000E07345F0010240F823206378FF2B14D0E1
:1050E00001A80193FFF7B0FF019A01239340C0F894
:1050F0000C356378019301A8FFF7A6FF019B03F528
:10510000E07345F0030240F82320A378FF2B0BD077
:1051100001A8A17B0193FFF797FF019B03F5E073C3
:1051200045EA810140F82310E078FF2810D021796A
:1051300081F0010104F0F6F8E378019301A8FFF78C
:1051400083FF019B03F5E07345F0030540F823500E
:10515000237C93B963782178FF2B18BF1A46A37874
:10516000CAF8081508BF4FF0FF32FF2B08BF4FF0F9
:10517000FF33CAF80C25CAF81035A368C8F82435DF
:10518000637B227B003B18BF0123022A1ED0032A27
:105190001FD0012A01D143F00203C8F85435A37986
:1051A000C8F8C0350723C8F8003556F8093023B1D0
:1051B000386840F30730FCF79FFC4E4400237377B8
:1051C00007480123337702B0BDE8F08743F00403BA
:1051D000E3E743F00603E0E70248F4E7FC38002089
:1051E0000000AD0B0500AD0BF8B50379204C056848
:1051F0005E0104EB4317A359B3B145F30730FCF745
:105200008BFC1C4BC5F808337B7F6BB101236B61B2
:105210006427D5F8043123B9012003F07DFF013F55
:10522000F7D1A31900225A770023C5F80035A31936
:105230009B7FD80717D4D5F80805411C01D004F08E
:1052400063F8D5F81005421C01D004F05DF8D5F8DC
:105250000C05431C01D004F057F8A319D87FFF2890
:1052600001D004F051F8344400232377F8BD00BF87
:10527000FC380020520108002DE9F843364F03792D
:1052800007EB4318144698F81D2081460D465E0131
:10529000002A5FD1BA592AB114F0140F04BF0122B9
:1052A00088F81D2095E80F0007EB060C0CF10C0C9C
:1052B0008CE80F000121404604F04AF8296821B12A
:1052C00001F06043B3F1005F06D1AA6852B102F069
:1052D0006043B3F1005F05D03E4400231F4873775D
:1052E000BDE8F883D9F800306868C3F84415E96868
:1052F000C3F84805C3F834250022C3F83815C3F8AD
:105300001821D3F8182114F0010218BF0122C3F8A4
:10531000502514F0020218BF0122C3F8402514F0F2
:10532000080204BF01211961B95949B912B9D3F86A
:105330001821FBE70021404604F00AF80848CFE7AF
:1053400014F0040F4FF0400214BFC3F80823C3F851
:105350000423F3E70348C3E7FC3800200A00AD0B41
:105360000000AD0B0B00AD0B4FF0402370B5D3F830
:10537000182192B1094C0025C3F81851294620463E
:10538000D3F8183103F0E4FFD4E9003165772572D2
:1053900004F10800BDE87040184770BDFC380020DB
:1053A00010B5144C144A1549032323616361144B4F
:1053B000A261E3614FF4806323620023A36263620E
:1053C000E36222660F4A6266E01D1022A26623672E
:1053D000E366636701F0FFFDBFF35F8F0A49204674
:1053E00001F0F9FDBFF35F8F2023A371BFF35F8F3F
:1053F00010BD00BF1C390020C6AC0000CFAC0000BF
:105400001453002004530020D3AC00000E4B70B5A1
:1054100053F82040013053F82060A64200D870BDF8
:10542000D4E900352846984765B1EB6830B10028CB
:10543000B8BF4042FF28A8BFFF2018705A7842F03A
:1054400001025A700834E8E7D09D000070B50546A7
:1054500010B90024204670BD0378002BF9D00E4C03
:105460000E4EB44208D10C4CB442F2D0204603F0A8
:1054700083FF50B91834F7E7204603F07DFF10B1E1
:105480002368AB42E6D01834EBE72168284601F0E8
:10549000B3FD0028EED1DDE7609700002098000002
:1054A000F7B505460E464FF02003EFF3118783F35F
:1054B0001288BFF36F8F00F0D3FE042D96BF184BF8
:1054C000184B53F8253000220446009216482A460D
:1054D000452101F0E4FC3EB1F369C3F308031BB1BD
:1054E0001248452101F0DBFC34B1204603F05BFF9C
:1054F000034608B1027802B90D4B0E4822464521F9
:1055000001F0CDFC31462846FEF72EFC87F31188CA
:10551000BFF36F8F204603B0BDE8F040FCF746BEF6
:10552000E89D0000DAAC0000F0AC00001DAD00000A
:10553000E8AC000043AD000008B50A4B0122022090
:105540001A70FFF763FF01F0DFF80320FFF75EFF3B
:1055500000F012F9FAF742FF034A137B23F001032C
:10556000137308BD145700202002002008B503481B
:10557000034A0021121A03F009FF08BD8001002030
:105580001857002070B5002386B00122CDE904230E
:10559000114E124D01930F22CDE90232104918230A
:1055A00003FB005506EBC0164FF4A072044602FB45
:1055B00000110C4B0095304600F082F8737B0A48CE
:1055C0002C75013423F0040300EBC4247373EE60E4
:1055D0006C6006B070BD00BFA0010020C43900207F
:1055E000187F0020AF9300005880002080B52D4B1D
:1055F000A6B083F308882C4D2C4E6B692C4F43F4D6
:10560000007300246B61E02385F82230EC772C7660
:105610006C76AC7685F820406B6A43F4E0236B62CD
:1056200085F82340FCF736FDFCF71AFA4FF0FF33FC
:10563000AB62EB62FCF74CFEFCF7CEFD40F20113CF
:10564000ADF8243006ABB360CDE91F44229403F0DB
:1056500092FE2046FFF7DAFE0120164DFFF7D6FE38
:1056600000F050FD144BB5610593012313490094DC
:10567000CDE903434FF420523B46CDE9014428468F
:1056800000F01EF86A7B064622F0040228466A7380
:1056900003F026FF2046FFF775FF3A4631462846BD
:1056A000FCF7FEFA5888002000ED00E0C439002025
:1056B0003955000020020020AAAD00001857002034
:1056C0002DE9FF410E9E0673042646730D9E8673D8
:1056D00000F15805D61DC0E916550C9A002526F094
:1056E0000706C0E90655C0E919168560C573C56689
:1056F00002920B9A019201EB06080A9A0092424626
:105700000446FCF7B1FA054B65659B6803B11B6F56
:105710002367404604B0BDE8F08100BFC4390020D3
:10572000F0B587B000270597109F04970F9F039748
:105730000E9F0297DDE912650D9F01970C9F009760
:105740000446FFF7BDFFB5F1FF3F08BFB6F1FF3FCD
:1057500005D055EA060305D1204600F0CDFB2046D2
:1057600007B0F0BD034932462B4604F1180000F0A3
:1057700045FEF4E7019500002DE9F043294C2A4D40
:1057800087B02646AE4204F130040FD300F0CEFAC3
:10579000244CDFF898904FF4004640F2E737AC42D3
:1057A00020D307B0BDE8F04300F090BC54F8043CAF
:1057B000059354F8103C049354F8143C039354F8A4
:1057C000183C029354F81C3C019354F8203C00937D
:1057D00054E90C0154E90A23FFF772FF54F8303CF6
:1057E0005E65CEE7636A5A1C0DD023EAE37300219D
:1057F0003846C3FB060151EAC333D4F8008004D114
:10580000404600F079FB3034C9E74FF47A72002348
:10581000FAF776FC02460B4608F11800494600F0FC
:10582000EDFDF0E74801002048010020019500004F
:105830002DE9F341044617461E464FF02003EFF3CF
:10584000118883F31288BFF36F8FC368324A6BB13C
:1058500080689168884219D057EA060318D188F306
:105860001188BFF36F8F6FF00F000CE0916891F912
:105870000E1021610133E3609368A36088F31188FF
:10588000BFF36F8F002002B0BDE8F0812169F0E71F
:1058900091F90E1090F90E309942A8BF19466FF099
:1058A0007E029142B8BF11468B422EDD03F08BFD84
:1058B0000546CDE9007619482246414600F078FBBE
:1058C0000028E0D04FF02003EFF3118683F3128815
:1058D000BFF36F8F236821699C420AD04BB193F9C3
:1058E0000E309942A8BF19466FF07E039942B8BFA7
:1058F0001946A06803F067FD00B945B10748314675
:1059000000F002FA6FF00A00BDE70025D1E786F348
:105910001188BFF36F8FF5E7C439002015570020B9
:1059200038B583680446002B32D01C4A92689342F3
:1059300031D1DA7B013ADA73C368012B05D9013B17
:10594000C36000F0C3FB002038BD4FF02003EFF32D
:10595000118583F31288BFF36F8F0169806803F0AC
:1059600032FD204603F02DFEA06058B190F90E20C4
:1059700022610022826703F0B3FD0948294600F046
:10598000C3F9DEE7E06085F31188BFF36F8FD8E7D6
:105990006FF01500D8E74FF0FF30D5E7C43900208D
:1059A0001557002038B504464FF02003EFF311855A
:1059B00083F31288BFF36F8F03F003FE48B1002218
:1059C000826703F08DFD29460548BDE8384000F0A8
:1059D0009BB9D4E902329A4218BF0133A360F2E7BF
:1059E0001557002013B54FF02004EFF3118184F315
:1059F0001288BFF36F8F846844B1013C846081F3E7
:105A00001188BFF36F8F002002B010BD52EA03046B
:105A100006D181F31188BFF36F8F6FF00F00F3E7AA
:105A2000CDE900230246024800F0C2FAECE700BFCD
:105A3000155700202DE9F04F474E85B004464FF032
:105A4000FF384FF0FF394FF02003EFF3118783F356
:105A50001288BFF36F8FD4F880508DB9022104F102
:105A6000980003F0CBFC002835D10023CDE9008954
:105A7000029304F188023946384800F049FCE2E715
:105A8000D4F884202B68C4F88030954201D1C4F842
:105A90008430D4F8983043F00203C4F89830EB68AF
:105AA00023F0040343F00103EB606B6887F3118874
:105AB000BFF36F8F284698474FF02003EFF3118B09
:105AC00083F31288BFF36F8FEB68990723F001020D
:105AD0000BD4EA600EE004F1900500220121284673
